:020000040000FA
:100000000200031200E3787FE4F6D8FD75810B024D
:10001000004D020092E493A3F8E493A34003F6801A
:1000200001F208DFF48029E493A3F85407240CC8F4
:10003000C333C4540F4420C8834004F4568001469F
:10004000F6DFE4800B01020408102040809000EAF3
:10005000E47E019360BCA3FF543F30E509541FFECA
:10006000E493A360010ECF54C025E060A840B8E43B
:1000700093A3FAE493A3F8E493A3C8C582C8CAC5BE
:1000800083CAF0A3C8C582C8CAC583CADFE9DEE750
:1000900080BE1200F11200CEE4FFEF5407FEC374DD
:1000A000079EFE7401A806088002C333D8FCFEEF49
:1000B000131313541F2408F8E65EFE0FBF1C02E45E
:1000C000FFEE60055390F780D143900880CC53F643
:1000D000FD53A5F775E3C075B180E5B130E6FB755A
:1000E000A952227597DE7597AD220408ABBBAA0012
:0C00F000001200F70200FB75D508222268
:00000001FF
