:020000040000FA
:1000000002004B12003CE4FFEF131313541F900047
:100010007D93FEEF5407FDC374079DFD7401A80591
:10002000088002C333D8FC5EFE0FBF1C02E4FFEE63
:1000300060055390F780D143900880CC1200631282
:10004000007112007512005A02007912006A787F5E
:10005000E4F6D8FD75810702000343B180E5B130B5
:10006000E6FB227597DE7597AD227597DE7597AD25
:100070002275D5082275E3402275A95222ABBBAA8E
:01008000007F
:00000001FF
