:020000040000FA
:1000000002007575A88275B802222202009A1200B9
:1000100060E4FF438701EF131313541F9000B09364
:10002000FEEF5407FDC374079DFD7401A805088009
:1000300002C333D8FC5EFE0FBF1C02E4FFEE600576
:100040005390F780CE43900880C9AF885388AF752E
:100050008CF8758A2FEF5440FEEF54104E428822E0
:100060001200A41200A81200841200AC12004A125E
:10007000009002000312000A787FE4F6D8FD758133
:100080000702000E53B1FC43B182E5B130E6FB221A
:10009000758E05758901438810225388DF758A2F74
:1000A000758CF83275D5082275E3402275A9322285
:0400B000ABBBAA003C
:00000001FF
