:020000040000FA
:03000000020800F3
:10080000120990787FE4F6D8FD75810F02084A023C
:10081000091AE493A3F8E493A34003F68001F208D5
:10082000DFF48029E493A3F85407240CC8C333C42D
:10083000540F4420C8834004F456800146F6DFE498
:10084000800B0102040810204080900997E47E018B
:100850009360BCA3FF543F30E509541FFEE493A30B
:1008600060010ECF54C025E060A840B8E493A3FA1D
:10087000E493A3F8E493A3C8C582C8CAC583CAF0A9
:10088000A3C8C582C8CAC583CADFE9DEE780BEC285
:10089000D5EC30E709B2D5E4C39DFDE49CFCEE3015
:1008A000E715B2D5E4C39FFFE49EFE1208C5C3E47A
:1008B0009DFDE49CFC80031208C530D507C3E49F6E
:1008C000FFE49EFE22BC000BBE0029EF8DF084FFEA
:1008D000ADF022E4CCF875F008EF2FFFEE33FEEC1C
:1008E00033FCEE9DEC984005FCEE9DFE0FD5F0E943
:1008F000E4CEFD22EDF8F5F0EE8420D21CFEADF042
:1009000075F008EF2FFFED33FD4007985006D5F046
:10091000F222C398FD0FD5F0EA2212099E75F6FD6A
:1009200053A5F775E3C043B180E5B130E6FB75A987
:1009300042E4FBFA7C007D08AF03AE0212088F8E02
:100940000E8F0F7C007D08AF03AE0212088FC374B8
:10095000079DFF7408250FF8E6FD3395E0FC740150
:100960007E00A807088005C333CE33CED8F9FFEE4A
:100970005CFEEF5DFF0BBB00010AEB641C4A7002DA
:10098000FAFBEF4E60055390F780A943900880A4CE
:100990007597DE7597AD220408ABBBAA000012095B
:0909A000A40209A875D508222261
:00000001FF
